{
  "contractName": "RatingSystem",
  "abi": [
    {
      "inputs": [],
      "stateMutability": "nonpayable",
      "type": "constructor"
    },
    {
      "anonymous": false,
      "inputs": [
        {
          "components": [
            {
              "internalType": "string",
              "name": "dogName",
              "type": "string"
            },
            {
              "internalType": "uint8",
              "name": "rating",
              "type": "uint8"
            }
          ],
          "indexed": false,
          "internalType": "struct RatingSystemInterface.Rating",
          "name": "rating",
          "type": "tuple"
        }
      ],
      "name": "NewRating",
      "type": "event"
    },
    {
      "anonymous": false,
      "inputs": [
        {
          "indexed": false,
          "internalType": "address",
          "name": "userAddress",
          "type": "address"
        }
      ],
      "name": "RegisterUserEvent",
      "type": "event"
    },
    {
      "inputs": [],
      "name": "admin",
      "outputs": [
        {
          "internalType": "address",
          "name": "",
          "type": "address"
        }
      ],
      "stateMutability": "view",
      "type": "function",
      "constant": true
    },
    {
      "inputs": [
        {
          "internalType": "uint256",
          "name": "",
          "type": "uint256"
        }
      ],
      "name": "ratings",
      "outputs": [
        {
          "internalType": "string",
          "name": "dogName",
          "type": "string"
        },
        {
          "internalType": "uint8",
          "name": "rating",
          "type": "uint8"
        }
      ],
      "stateMutability": "view",
      "type": "function",
      "constant": true
    },
    {
      "inputs": [
        {
          "internalType": "address",
          "name": "",
          "type": "address"
        }
      ],
      "name": "users",
      "outputs": [
        {
          "internalType": "bool",
          "name": "isRegistered",
          "type": "bool"
        }
      ],
      "stateMutability": "view",
      "type": "function",
      "constant": true
    },
    {
      "inputs": [
        {
          "internalType": "address",
          "name": "_userAddress",
          "type": "address"
        }
      ],
      "name": "registerUser",
      "outputs": [],
      "stateMutability": "nonpayable",
      "type": "function"
    },
    {
      "inputs": [
        {
          "internalType": "string",
          "name": "dogn",
          "type": "string"
        },
        {
          "internalType": "uint8",
          "name": "rating",
          "type": "uint8"
        }
      ],
      "name": "add",
      "outputs": [
        {
          "internalType": "bool",
          "name": "",
          "type": "bool"
        }
      ],
      "stateMutability": "payable",
      "type": "function",
      "payable": true
    },
    {
      "inputs": [],
      "name": "getRatingCount",
      "outputs": [
        {
          "internalType": "uint256",
          "name": "",
          "type": "uint256"
        }
      ],
      "stateMutability": "view",
      "type": "function",
      "constant": true
    },
    {
      "inputs": [],
      "name": "getAverageRating",
      "outputs": [
        {
          "internalType": "uint256",
          "name": "",
          "type": "uint256"
        }
      ],
      "stateMutability": "view",
      "type": "function",
      "constant": true
    },
    {
      "inputs": [
        {
          "internalType": "address",
          "name": "_addr",
          "type": "address"
        }
      ],
      "name": "isRegistered",
      "outputs": [
        {
          "internalType": "bool",
          "name": "",
          "type": "bool"
        }
      ],
      "stateMutability": "view",
      "type": "function",
      "constant": true
    },
    {
      "inputs": [
        {
          "internalType": "uint256",
          "name": "i",
          "type": "uint256"
        }
      ],
      "name": "getRating",
      "outputs": [
        {
          "components": [
            {
              "internalType": "string",
              "name": "dogName",
              "type": "string"
            },
            {
              "internalType": "uint8",
              "name": "rating",
              "type": "uint8"
            }
          ],
          "internalType": "struct RatingSystemInterface.Rating",
          "name": "",
          "type": "tuple"
        }
      ],
      "stateMutability": "view",
      "type": "function",
      "constant": true
    },
    {
      "inputs": [
        {
          "internalType": "address",
          "name": "_addr",
          "type": "address"
        }
      ],
      "name": "isAdmin",
      "outputs": [
        {
          "internalType": "bool",
          "name": "",
          "type": "bool"
        }
      ],
      "stateMutability": "view",
      "type": "function",
      "constant": true
    }
  ],
  "bytecode": "0x60806040523480156200001157600080fd5b5033600160006101000a81548173ffffffffffffffffffffffffffffffffffffffff021916908373ffffffffffffffffffffffffffffffffffffffff16021790555062000086600160009054906101000a900473ffffffffffffffffffffffffffffffffffffffff166200008c60201b60201c565b6200039e565b600160009054906101000a900473ffffffffffffffffffffffffffffffffffffffff1673ffffffffffffffffffffffffffffffffffffffff163373ffffffffffffffffffffffffffffffffffffffff16146200011f576040517f08c379a00000000000000000000000000000000000000000000000000000000081526004016200011690620002a8565b60405180910390fd5b6000808273ffffffffffffffffffffffffffffffffffffffff1673ffffffffffffffffffffffffffffffffffffffff16815260200190815260200160002060000160009054906101000a900460ff1615620001b1576040517f08c379a0000000000000000000000000000000000000000000000000000000008152600401620001a8906200031a565b60405180910390fd5b60016000808373ffffffffffffffffffffffffffffffffffffffff1673ffffffffffffffffffffffffffffffffffffffff16815260200190815260200160002060000160006101000a81548160ff0219169083151502179055507f362c00aac2766ccd51702fe4a5cebe8f14bf180fe3646103a93f4e28d3187464816040516200023c919062000381565b60405180910390a150565b600082825260208201905092915050565b7f46756e6374696f6e206d7573742062652063616c6c65642062792061646d696e600082015250565b60006200029060208362000247565b91506200029d8262000258565b602082019050919050565b60006020820190508181036000830152620002c38162000281565b9050919050565b7f7573657220616c72656164792072656769737465726564000000000000000000600082015250565b60006200030260178362000247565b91506200030f82620002ca565b602082019050919050565b600060208201905081810360008301526200033581620002f3565b9050919050565b600073ffffffffffffffffffffffffffffffffffffffff82169050919050565b600062000369826200033c565b9050919050565b6200037b816200035c565b82525050565b600060208201905062000398600083018462000370565b92915050565b61122d80620003ae6000396000f3fe6080604052600436106100915760003560e01c806370f6e4cf1161005957806370f6e4cf14610195578063a87430ba146101c0578063b0ee0e9f146101fd578063c3c5a5471461023a578063f851a4401461027757610091565b80632199d5cd14610096578063227c1f18146100bf57806324d7806c146100ea5780635d30e84d1461012757806363f74bac14610165575b600080fd5b3480156100a257600080fd5b506100bd60048036038101906100b89190610a5b565b6102a2565b005b3480156100cb57600080fd5b506100d4610455565b6040516100e19190610aa1565b60405180910390f35b3480156100f657600080fd5b50610111600480360381019061010c9190610a5b565b610466565b60405161011e9190610ad7565b60405180910390f35b34801561013357600080fd5b5061014e60048036038101906101499190610b1e565b6104c0565b60405161015c929190610c00565b60405180910390f35b61017f600480360381019061017a9190610d91565b610589565b60405161018c9190610ad7565b60405180910390f35b3480156101a157600080fd5b506101aa6106ed565b6040516101b79190610aa1565b60405180910390f35b3480156101cc57600080fd5b506101e760048036038101906101e29190610a5b565b610771565b6040516101f49190610ad7565b60405180910390f35b34801561020957600080fd5b50610224600480360381019061021f9190610b1e565b61079c565b6040516102319190610e83565b60405180910390f35b34801561024657600080fd5b50610261600480360381019061025c9190610a5b565b610887565b60405161026e9190610ad7565b60405180910390f35b34801561028357600080fd5b5061028c6108df565b6040516102999190610eb4565b60405180910390f35b600160009054906101000a900473ffffffffffffffffffffffffffffffffffffffff1673ffffffffffffffffffffffffffffffffffffffff163373ffffffffffffffffffffffffffffffffffffffff1614610332576040517f08c379a000000000000000000000000000000000000000000000000000000000815260040161032990610f1b565b60405180910390fd5b6000808273ffffffffffffffffffffffffffffffffffffffff1673ffffffffffffffffffffffffffffffffffffffff16815260200190815260200160002060000160009054906101000a900460ff16156103c1576040517f08c379a00000000000000000000000000000000000000000000000000000000081526004016103b890610f87565b60405180910390fd5b60016000808373ffffffffffffffffffffffffffffffffffffffff1673ffffffffffffffffffffffffffffffffffffffff16815260200190815260200160002060000160006101000a81548160ff0219169083151502179055507f362c00aac2766ccd51702fe4a5cebe8f14bf180fe3646103a93f4e28d31874648160405161044a9190610eb4565b60405180910390a150565b60006104616002610905565b905090565b6000600160009054906101000a900473ffffffffffffffffffffffffffffffffffffffff1673ffffffffffffffffffffffffffffffffffffffff168273ffffffffffffffffffffffffffffffffffffffff16149050919050565b600381815481106104d057600080fd5b90600052602060002090600202016000915090508060000180546104f390610fd6565b80601f016020809104026020016040519081016040528092919081815260200182805461051f90610fd6565b801561056c5780601f106105415761010080835404028352916020019161056c565b820191906000526020600020905b81548152906001019060200180831161054f57829003601f168201915b5050505050908060010160009054906101000a900460ff16905082565b60008060003373ffffffffffffffffffffffffffffffffffffffff1673ffffffffffffffffffffffffffffffffffffffff16815260200190815260200160002060000160009054906101000a900460ff16610619576040517f08c379a00000000000000000000000000000000000000000000000000000000081526004016106109061107a565b60405180910390fd5b600060405180604001604052808581526020018460ff1681525090506003819080600181540180825580915050600190039060005260206000209060020201600090919091909150600082015181600001908051906020019061067d929190610929565b5060208201518160010160006101000a81548160ff021916908360ff16021790555050506106ab6002610913565b7fb7c313d53f38116e604258d27fed677bce9c3f945b41b78ceaba9d52be83352c816040516106da9190610e83565b60405180910390a1600191505092915050565b60008060006106fa610455565b905060005b8181101561075d576003818154811061071b5761071a61109a565b5b906000526020600020906002020160010160009054906101000a900460ff1660ff168361074891906110f8565b925080806107559061114e565b9150506106ff565b50808261076a91906111c6565b9250505090565b60006020528060005260406000206000915090508060000160009054906101000a900460ff16905081565b6107a46109af565b600382815481106107b8576107b761109a565b5b90600052602060002090600202016040518060400160405290816000820180546107e190610fd6565b80601f016020809104026020016040519081016040528092919081815260200182805461080d90610fd6565b801561085a5780601f1061082f5761010080835404028352916020019161085a565b820191906000526020600020905b81548152906001019060200180831161083d57829003601f168201915b505050505081526020016001820160009054906101000a900460ff1660ff1660ff16815250509050919050565b60008060008373ffffffffffffffffffffffffffffffffffffffff1673ffffffffffffffffffffffffffffffffffffffff16815260200190815260200160002060000160009054906101000a900460ff169050919050565b600160009054906101000a900473ffffffffffffffffffffffffffffffffffffffff1681565b600081600001549050919050565b6001816000016000828254019250508190555050565b82805461093590610fd6565b90600052602060002090601f016020900481019282610957576000855561099e565b82601f1061097057805160ff191683800117855561099e565b8280016001018555821561099e579182015b8281111561099d578251825591602001919060010190610982565b5b5090506109ab91906109cc565b5090565b604051806040016040528060608152602001600060ff1681525090565b5b808211156109e55760008160009055506001016109cd565b5090565b6000604051905090565b600080fd5b600080fd5b600073ffffffffffffffffffffffffffffffffffffffff82169050919050565b6000610a28826109fd565b9050919050565b610a3881610a1d565b8114610a4357600080fd5b50565b600081359050610a5581610a2f565b92915050565b600060208284031215610a7157610a706109f3565b5b6000610a7f84828501610a46565b91505092915050565b6000819050919050565b610a9b81610a88565b82525050565b6000602082019050610ab66000830184610a92565b92915050565b60008115159050919050565b610ad181610abc565b82525050565b6000602082019050610aec6000830184610ac8565b92915050565b610afb81610a88565b8114610b0657600080fd5b50565b600081359050610b1881610af2565b92915050565b600060208284031215610b3457610b336109f3565b5b6000610b4284828501610b09565b91505092915050565b600081519050919050565b600082825260208201905092915050565b60005b83811015610b85578082015181840152602081019050610b6a565b83811115610b94576000848401525b50505050565b6000601f19601f8301169050919050565b6000610bb682610b4b565b610bc08185610b56565b9350610bd0818560208601610b67565b610bd981610b9a565b840191505092915050565b600060ff82169050919050565b610bfa81610be4565b82525050565b60006040820190508181036000830152610c1a8185610bab565b9050610c296020830184610bf1565b9392505050565b600080fd5b600080fd5b7f4e487b7100000000000000000000000000000000000000000000000000000000600052604160045260246000fd5b610c7282610b9a565b810181811067ffffffffffffffff82111715610c9157610c90610c3a565b5b80604052505050565b6000610ca46109e9565b9050610cb08282610c69565b919050565b600067ffffffffffffffff821115610cd057610ccf610c3a565b5b610cd982610b9a565b9050602081019050919050565b82818337600083830152505050565b6000610d08610d0384610cb5565b610c9a565b905082815260208101848484011115610d2457610d23610c35565b5b610d2f848285610ce6565b509392505050565b600082601f830112610d4c57610d4b610c30565b5b8135610d5c848260208601610cf5565b91505092915050565b610d6e81610be4565b8114610d7957600080fd5b50565b600081359050610d8b81610d65565b92915050565b60008060408385031215610da857610da76109f3565b5b600083013567ffffffffffffffff811115610dc657610dc56109f8565b5b610dd285828601610d37565b9250506020610de385828601610d7c565b9150509250929050565b600082825260208201905092915050565b6000610e0982610b4b565b610e138185610ded565b9350610e23818560208601610b67565b610e2c81610b9a565b840191505092915050565b610e4081610be4565b82525050565b60006040830160008301518482036000860152610e638282610dfe565b9150506020830151610e786020860182610e37565b508091505092915050565b60006020820190508181036000830152610e9d8184610e46565b905092915050565b610eae81610a1d565b82525050565b6000602082019050610ec96000830184610ea5565b92915050565b7f46756e6374696f6e206d7573742062652063616c6c65642062792061646d696e600082015250565b6000610f05602083610b56565b9150610f1082610ecf565b602082019050919050565b60006020820190508181036000830152610f3481610ef8565b9050919050565b7f7573657220616c72656164792072656769737465726564000000000000000000600082015250565b6000610f71601783610b56565b9150610f7c82610f3b565b602082019050919050565b60006020820190508181036000830152610fa081610f64565b9050919050565b7f4e487b7100000000000000000000000000000000000000000000000000000000600052602260045260246000fd5b60006002820490506001821680610fee57607f821691505b6020821081141561100257611001610fa7565b5b50919050565b7f46756e6374696f6e206d7573742062652063616c6c656420627920726567697360008201527f7465726564207573657200000000000000000000000000000000000000000000602082015250565b6000611064602a83610b56565b915061106f82611008565b604082019050919050565b6000602082019050818103600083015261109381611057565b9050919050565b7f4e487b7100000000000000000000000000000000000000000000000000000000600052603260045260246000fd5b7f4e487b7100000000000000000000000000000000000000000000000000000000600052601160045260246000fd5b600061110382610a88565b915061110e83610a88565b9250827fffffffffffffffffffffffffffffffffffffffffffffffffffffffffffffffff03821115611143576111426110c9565b5b828201905092915050565b600061115982610a88565b91507fffffffffffffffffffffffffffffffffffffffffffffffffffffffffffffffff82141561118c5761118b6110c9565b5b600182019050919050565b7f4e487b7100000000000000000000000000000000000000000000000000000000600052601260045260246000fd5b60006111d182610a88565b91506111dc83610a88565b9250826111ec576111eb611197565b5b82820490509291505056fea264697066735822122077f541b19bc44ec0448ba064f208bcd83934fe328016af18ee2aa3828a4db55564736f6c634300080a0033",
  "immutableReferences": {},
  "source": "// SPDX-License-Identifier: MIT\npragma solidity ^0.8.10;\nimport \"./RatingSystemInterface.sol\";\nimport \"@openzeppelin/contracts/utils/Counters.sol\";\n\ncontract RatingSystem is RatingSystemInterface {\n\n  mapping(address => User) public users;\n\n  address public admin;\n  Counters.Counter rateCount;\n  Rating[] public ratings;\n\n  struct User {\n    bool isRegistered;\n  }\n\n  function registerUser(address _userAddress) public onlyAdmin {\n    require(\n      !users[_userAddress].isRegistered,\n      \"user already registered\"\n    );\n    users[_userAddress].isRegistered = true;\n    emit RegisterUserEvent(_userAddress);\n  }\n\n  function add( string memory dogn, uint8 rating) public payable onlyRegisteredUser returns(bool)  {\n\n    Rating memory novrating = Rating({\n      dogName: dogn,\n      rating: rating\n    });\n\n    ratings.push(novrating);\n    Counters.increment(rateCount);\n    emit NewRating(novrating);\n    return true;\n  }\n\n  function getRatingCount() public view returns (uint256) {\n      return Counters.current(rateCount);\n  }\n\n  function getAverageRating() public view returns (uint256) {\n    uint sum;\n    uint counter= getRatingCount();\n\n    for(uint i = 0; i < counter; i++) {\n      sum += ratings[i].rating;\n    }\n    return sum / counter;\n  }\n\n  function isRegistered(address _addr) public view returns(bool) {\n    return users[_addr].isRegistered;\n  }\n\n  function getRating(uint i) public view returns(Rating memory) {\n    return ratings[i];\n  }\n\n  function isAdmin(address _addr) public view returns(bool) {\n    return _addr == admin;\n  }\n\n  modifier onlyAdmin() {\n    require(msg.sender == admin, \"Function must be called by admin\");\n    _;\n\n  }\n\n  modifier onlyRegisteredUser() {\n    require(\n      users[msg.sender].isRegistered,\n      \"Function must be called by registered user\"\n    );\n    _;\n  }\n\n  constructor() {\n    admin = msg.sender;\n    registerUser(admin);\n  }\n\n  event NewRating(Rating rating);\n  event RegisterUserEvent(address userAddress);\n\n}",
  "sourcePath": "/Users/aleksandardimitrievik/Desktop/Treta Godina/SP/Proekt/LP-12/LP-12/app_dapp/contracts/RatingSystem.sol",
  "compiler": {
    "name": "solc",
    "version": "0.8.10+commit.fc410830.Emscripten.clang"
  },
  "schemaVersion": "3.4.4",
  "updatedAt": "2022-01-08T15:00:59.484Z",
  "networkType": "ethereum",
  "devdoc": {
    "kind": "dev",
    "methods": {},
    "version": 1
  },
  "userdoc": {
    "kind": "user",
    "methods": {},
    "version": 1
  }
}